{
  "contractName": "Faucet",
  "abi": [
    {
      "inputs": [],
      "stateMutability": "nonpayable",
      "type": "constructor"
    },
    {
      "inputs": [],
      "name": "owner",
      "outputs": [
        {
          "internalType": "address payable",
          "name": "",
          "type": "address"
        }
      ],
      "stateMutability": "view",
      "type": "function",
      "constant": true
    },
    {
      "stateMutability": "payable",
      "type": "receive",
      "payable": true
    },
    {
      "inputs": [
        {
          "internalType": "address payable",
          "name": "newOwner",
          "type": "address"
        }
      ],
      "name": "changeOwner",
      "outputs": [],
      "stateMutability": "nonpayable",
      "type": "function"
    },
    {
      "inputs": [
        {
          "internalType": "uint256",
          "name": "amount",
          "type": "uint256"
        }
      ],
      "name": "withdraw",
      "outputs": [],
      "stateMutability": "nonpayable",
      "type": "function"
    }
  ],
  "bytecode": "0x608060405234801561001057600080fd5b50336000806101000a81548173ffffffffffffffffffffffffffffffffffffffff021916908373ffffffffffffffffffffffffffffffffffffffff1602179055506102be806100606000396000f3fe6080604052600436106100385760003560e01c80632e1a7d4d146100445780638da5cb5b1461007f578063a6f9dae1146100c05761003f565b3661003f57005b600080fd5b34801561005057600080fd5b5061007d6004803603602081101561006757600080fd5b8101908080359060200190929190505050610111565b005b34801561008b57600080fd5b50610094610170565b604051808273ffffffffffffffffffffffffffffffffffffffff16815260200191505060405180910390f35b3480156100cc57600080fd5b5061010f600480360360208110156100e357600080fd5b81019080803573ffffffffffffffffffffffffffffffffffffffff169060200190929190505050610194565b005b67016345785d8a000081111561012657600080fd5b3373ffffffffffffffffffffffffffffffffffffffff166108fc829081150290604051600060405180830381858888f1935050505015801561016c573d6000803e3d6000fd5b5050565b60008054906101000a900473ffffffffffffffffffffffffffffffffffffffff1681565b60008054906101000a900473ffffffffffffffffffffffffffffffffffffffff1673ffffffffffffffffffffffffffffffffffffffff163373ffffffffffffffffffffffffffffffffffffffff16146101ec57600080fd5b60008054906101000a900473ffffffffffffffffffffffffffffffffffffffff1673ffffffffffffffffffffffffffffffffffffffff168173ffffffffffffffffffffffffffffffffffffffff16141561024557600080fd5b806000806101000a81548173ffffffffffffffffffffffffffffffffffffffff021916908373ffffffffffffffffffffffffffffffffffffffff1602179055505056fea2646970667358221220c4476bb09f50bc747e9c94c21297738ba79721d884cf52f7533dcaa8539da33864736f6c634300060c0033",
  "immutableReferences": {},
  "source": "pragma solidity ^0.6.4;\n\ncontract Faucet {\n  address payable public owner;\n\n  constructor() public {\n      owner = msg.sender;\n  }\n\n  // Admin methods\n  function changeOwner(address payable newOwner) public onlyOwner {\n    require(newOwner != owner);\n    owner = newOwner;\n  }\n\n  modifier onlyOwner {\n    require(msg.sender == owner);\n    _;\n  }\n\n  // Fund methods\n  receive() external payable {}\n\n  function withdraw(uint amount) public {\n    require(amount <= 0.1 ether);\n\n    msg.sender.transfer(amount);\n  }\n}",
  "sourcePath": "/Users/tiagodias/Desktop/Personal Dev/Blockchain/eth-wallet/contracts/Faucet.sol",
  "compiler": {
    "name": "solc",
    "version": "0.6.12+commit.27d51765.Emscripten.clang"
  },
  "schemaVersion": "3.3.4",
  "updatedAt": "2021-04-16T15:10:27.650Z",
  "networkType": "ethereum",
  "devdoc": {
    "kind": "dev",
    "methods": {},
    "version": 1
  },
  "userdoc": {
    "kind": "user",
    "methods": {},
    "version": 1
  },
  "db": {
    "callBytecode": {
      "id": "0xcd10b4226764bdb69547fd9e51b4b467031d82e81241632be8746cb907f317e7"
    },
    "createBytecode": {
      "id": "0x09419edc0cd2015da27fc3a33139feee793fdd082452089bf13a6b7062d3526b"
    },
    "contract": {
      "id": "0xd308faf3e54662f8a74d07103896e94f221bd23b70bcb2f0e744e2c1671f395a"
    }
  }
}